{
  "abi": [
    {
      "inputs": [
        {
          "internalType": "contract IERC20",
          "name": "_tokenAddress",
          "type": "address"
        }
      ],
      "stateMutability": "nonpayable",
      "type": "constructor"
    },
    {
      "anonymous": false,
      "inputs": [
        {
          "indexed": true,
          "internalType": "address",
          "name": "owner",
          "type": "address"
        },
        {
          "indexed": true,
          "internalType": "address",
          "name": "approved",
          "type": "address"
        },
        {
          "indexed": true,
          "internalType": "uint256",
          "name": "tokenId",
          "type": "uint256"
        }
      ],
      "name": "Approval",
      "type": "event"
    },
    {
      "anonymous": false,
      "inputs": [
        {
          "indexed": true,
          "internalType": "address",
          "name": "owner",
          "type": "address"
        },
        {
          "indexed": true,
          "internalType": "address",
          "name": "operator",
          "type": "address"
        },
        {
          "indexed": false,
          "internalType": "bool",
          "name": "approved",
          "type": "bool"
        }
      ],
      "name": "ApprovalForAll",
      "type": "event"
    },
    {
      "anonymous": false,
      "inputs": [
        {
          "indexed": true,
          "internalType": "address",
          "name": "from",
          "type": "address"
        },
        {
          "indexed": true,
          "internalType": "address",
          "name": "to",
          "type": "address"
        },
        {
          "indexed": true,
          "internalType": "uint256",
          "name": "tokenId",
          "type": "uint256"
        }
      ],
      "name": "Transfer",
      "type": "event"
    },
    {
      "anonymous": false,
      "inputs": [
        {
          "indexed": false,
          "internalType": "string",
          "name": "_nftURI",
          "type": "string"
        },
        {
          "indexed": false,
          "internalType": "uint128",
          "name": "_listedAmount",
          "type": "uint128"
        },
        {
          "indexed": false,
          "internalType": "uint256",
          "name": "_maxSupply",
          "type": "uint256"
        },
        {
          "indexed": false,
          "internalType": "uint256",
          "name": "_number",
          "type": "uint256"
        }
      ],
      "name": "_createOG",
      "type": "event"
    },
    {
      "stateMutability": "payable",
      "type": "fallback"
    },
    {
      "inputs": [
        {
          "internalType": "uint256",
          "name": "",
          "type": "uint256"
        }
      ],
      "name": "OGCount",
      "outputs": [
        {
          "internalType": "string",
          "name": "nftURI",
          "type": "string"
        },
        {
          "internalType": "uint128",
          "name": "listedAmount",
          "type": "uint128"
        },
        {
          "internalType": "address",
          "name": "OGCreator",
          "type": "address"
        },
        {
          "internalType": "uint256",
          "name": "OGCardCount",
          "type": "uint256"
        },
        {
          "internalType": "uint256",
          "name": "maxSupply",
          "type": "uint256"
        },
        {
          "internalType": "uint256",
          "name": "amountEarned",
          "type": "uint256"
        },
        {
          "internalType": "uint256",
          "name": "slotNumber",
          "type": "uint256"
        }
      ],
      "stateMutability": "view",
      "type": "function"
    },
    {
      "inputs": [
        {
          "internalType": "address",
          "name": "to",
          "type": "address"
        },
        {
          "internalType": "uint256",
          "name": "tokenId",
          "type": "uint256"
        }
      ],
      "name": "approve",
      "outputs": [],
      "stateMutability": "nonpayable",
      "type": "function"
    },
    {
      "inputs": [
        {
          "internalType": "address",
          "name": "owner",
          "type": "address"
        }
      ],
      "name": "balanceOf",
      "outputs": [
        {
          "internalType": "uint256",
          "name": "",
          "type": "uint256"
        }
      ],
      "stateMutability": "view",
      "type": "function"
    },
    {
      "inputs": [
        {
          "internalType": "string",
          "name": "_nftURI",
          "type": "string"
        },
        {
          "internalType": "uint128",
          "name": "_listedAmount",
          "type": "uint128"
        },
        {
          "internalType": "uint256",
          "name": "_maxSupply",
          "type": "uint256"
        }
      ],
      "name": "createOG",
      "outputs": [],
      "stateMutability": "nonpayable",
      "type": "function"
    },
    {
      "inputs": [],
      "name": "genericWithdrawETH",
      "outputs": [],
      "stateMutability": "nonpayable",
      "type": "function"
    },
    {
      "inputs": [
        {
          "internalType": "contract IERC20",
          "name": "_tokenAddress",
          "type": "address"
        }
      ],
      "name": "genericWithdrawal",
      "outputs": [],
      "stateMutability": "nonpayable",
      "type": "function"
    },
    {
      "inputs": [],
      "name": "getAllOG",
      "outputs": [
        {
          "components": [
            {
              "internalType": "string",
              "name": "nftURI",
              "type": "string"
            },
            {
              "internalType": "uint128",
              "name": "listedAmount",
              "type": "uint128"
            },
            {
              "internalType": "address",
              "name": "OGCreator",
              "type": "address"
            },
            {
              "internalType": "uint256",
              "name": "OGCardCount",
              "type": "uint256"
            },
            {
              "internalType": "uint256",
              "name": "maxSupply",
              "type": "uint256"
            },
            {
              "internalType": "uint256",
              "name": "amountEarned",
              "type": "uint256"
            },
            {
              "internalType": "uint256",
              "name": "slotNumber",
              "type": "uint256"
            }
          ],
          "internalType": "struct Decentainment.OGDetails[]",
          "name": "_allOG",
          "type": "tuple[]"
        }
      ],
      "stateMutability": "view",
      "type": "function"
    },
    {
      "inputs": [
        {
          "internalType": "uint256",
          "name": "tokenId",
          "type": "uint256"
        }
      ],
      "name": "getApproved",
      "outputs": [
        {
          "internalType": "address",
          "name": "",
          "type": "address"
        }
      ],
      "stateMutability": "view",
      "type": "function"
    },
    {
      "inputs": [
        {
          "internalType": "uint256",
          "name": "_OGNumber",
          "type": "uint256"
        }
      ],
      "name": "getArtist",
      "outputs": [
        {
          "components": [
            {
              "internalType": "string",
              "name": "nftURI",
              "type": "string"
            },
            {
              "internalType": "uint128",
              "name": "listedAmount",
              "type": "uint128"
            },
            {
              "internalType": "address",
              "name": "OGCreator",
              "type": "address"
            },
            {
              "internalType": "uint256",
              "name": "OGCardCount",
              "type": "uint256"
            },
            {
              "internalType": "uint256",
              "name": "maxSupply",
              "type": "uint256"
            },
            {
              "internalType": "uint256",
              "name": "amountEarned",
              "type": "uint256"
            },
            {
              "internalType": "uint256",
              "name": "slotNumber",
              "type": "uint256"
            }
          ],
          "internalType": "struct Decentainment.OGDetails",
          "name": "",
          "type": "tuple"
        }
      ],
      "stateMutability": "view",
      "type": "function"
    },
    {
      "inputs": [
        {
          "internalType": "address",
          "name": "",
          "type": "address"
        },
        {
          "internalType": "uint256",
          "name": "",
          "type": "uint256"
        }
      ],
      "name": "getID",
      "outputs": [
        {
          "internalType": "uint256",
          "name": "",
          "type": "uint256"
        }
      ],
      "stateMutability": "view",
      "type": "function"
    },
    {
      "inputs": [
        {
          "internalType": "address",
          "name": "_addr",
          "type": "address"
        }
      ],
      "name": "getTokensURI",
      "outputs": [
        {
          "internalType": "string[]",
          "name": "_tokenURI",
          "type": "string[]"
        }
      ],
      "stateMutability": "view",
      "type": "function"
    },
    {
      "inputs": [
        {
          "internalType": "address",
          "name": "_addr",
          "type": "address"
        }
      ],
      "name": "getUserData",
      "outputs": [
        {
          "internalType": "uint256[]",
          "name": "_userData",
          "type": "uint256[]"
        }
      ],
      "stateMutability": "view",
      "type": "function"
    },
    {
      "inputs": [
        {
          "internalType": "address",
          "name": "owner",
          "type": "address"
        },
        {
          "internalType": "address",
          "name": "operator",
          "type": "address"
        }
      ],
      "name": "isApprovedForAll",
      "outputs": [
        {
          "internalType": "bool",
          "name": "",
          "type": "bool"
        }
      ],
      "stateMutability": "view",
      "type": "function"
    },
    {
      "inputs": [
        {
          "internalType": "uint256",
          "name": "_OGNumber",
          "type": "uint256"
        }
      ],
      "name": "joinOG",
      "outputs": [],
      "stateMutability": "nonpayable",
      "type": "function"
    },
    {
      "inputs": [],
      "name": "name",
      "outputs": [
        {
          "internalType": "string",
          "name": "",
          "type": "string"
        }
      ],
      "stateMutability": "view",
      "type": "function"
    },
    {
      "inputs": [],
      "name": "owner",
      "outputs": [
        {
          "internalType": "address",
          "name": "",
          "type": "address"
        }
      ],
      "stateMutability": "view",
      "type": "function"
    },
    {
      "inputs": [
        {
          "internalType": "uint256",
          "name": "tokenId",
          "type": "uint256"
        }
      ],
      "name": "ownerOf",
      "outputs": [
        {
          "internalType": "address",
          "name": "",
          "type": "address"
        }
      ],
      "stateMutability": "view",
      "type": "function"
    },
    {
      "inputs": [
        {
          "internalType": "uint256",
          "name": "",
          "type": "uint256"
        },
        {
          "internalType": "address",
          "name": "",
          "type": "address"
        }
      ],
      "name": "purchased",
      "outputs": [
        {
          "internalType": "bool",
          "name": "",
          "type": "bool"
        }
      ],
      "stateMutability": "view",
      "type": "function"
    },
    {
      "inputs": [
        {
          "internalType": "address",
          "name": "from",
          "type": "address"
        },
        {
          "internalType": "address",
          "name": "to",
          "type": "address"
        },
        {
          "internalType": "uint256",
          "name": "tokenId",
          "type": "uint256"
        }
      ],
      "name": "safeTransferFrom",
      "outputs": [],
      "stateMutability": "nonpayable",
      "type": "function"
    },
    {
      "inputs": [
        {
          "internalType": "address",
          "name": "from",
          "type": "address"
        },
        {
          "internalType": "address",
          "name": "to",
          "type": "address"
        },
        {
          "internalType": "uint256",
          "name": "tokenId",
          "type": "uint256"
        },
        {
          "internalType": "bytes",
          "name": "data",
          "type": "bytes"
        }
      ],
      "name": "safeTransferFrom",
      "outputs": [],
      "stateMutability": "nonpayable",
      "type": "function"
    },
    {
      "inputs": [
        {
          "internalType": "address",
          "name": "operator",
          "type": "address"
        },
        {
          "internalType": "bool",
          "name": "approved",
          "type": "bool"
        }
      ],
      "name": "setApprovalForAll",
      "outputs": [],
      "stateMutability": "nonpayable",
      "type": "function"
    },
    {
      "inputs": [
        {
          "internalType": "bytes4",
          "name": "interfaceId",
          "type": "bytes4"
        }
      ],
      "name": "supportsInterface",
      "outputs": [
        {
          "internalType": "bool",
          "name": "",
          "type": "bool"
        }
      ],
      "stateMutability": "view",
      "type": "function"
    },
    {
      "inputs": [],
      "name": "symbol",
      "outputs": [
        {
          "internalType": "string",
          "name": "",
          "type": "string"
        }
      ],
      "stateMutability": "view",
      "type": "function"
    },
    {
      "inputs": [],
      "name": "tokenAddress",
      "outputs": [
        {
          "internalType": "contract IERC20",
          "name": "",
          "type": "address"
        }
      ],
      "stateMutability": "view",
      "type": "function"
    },
    {
      "inputs": [
        {
          "internalType": "uint256",
          "name": "tokenId",
          "type": "uint256"
        }
      ],
      "name": "tokenURI",
      "outputs": [
        {
          "internalType": "string",
          "name": "",
          "type": "string"
        }
      ],
      "stateMutability": "view",
      "type": "function"
    },
    {
      "inputs": [
        {
          "internalType": "address",
          "name": "from",
          "type": "address"
        },
        {
          "internalType": "address",
          "name": "to",
          "type": "address"
        },
        {
          "internalType": "uint256",
          "name": "tokenId",
          "type": "uint256"
        }
      ],
      "name": "transferFrom",
      "outputs": [],
      "stateMutability": "nonpayable",
      "type": "function"
    },
    {
      "inputs": [
        {
          "internalType": "uint256",
          "name": "_OGNumber",
          "type": "uint256"
        }
      ],
      "name": "withdrawOGDeposit",
      "outputs": [],
      "stateMutability": "nonpayable",
      "type": "function"
    },
    {
      "stateMutability": "payable",
      "type": "receive"
    }
  ],
  "bytecode": {
    "object": "0x60806040526001600c553480156200001657600080fd5b5060405162002ae738038062002ae78339810160408190526200003991620000d3565b6040518060400160405280600d81526020016c111958d95b9d185a5b9b595b9d609a1b815250604051806040016040528060038152602001621110d560ea1b81525081600090816200008c9190620001aa565b5060016200009b8282620001aa565b505060088054336001600160a01b031991821617909155600780549091166001600160a01b0393909316929092179091555062000276565b600060208284031215620000e657600080fd5b81516001600160a01b0381168114620000fe57600080fd5b9392505050565b634e487b7160e01b600052604160045260246000fd5b600181811c908216806200013057607f821691505b6020821081036200015157634e487b7160e01b600052602260045260246000fd5b50919050565b601f821115620001a557600081815260208120601f850160051c81016020861015620001805750805b601f850160051c820191505b81811015620001a1578281556001016200018c565b5050505b505050565b81516001600160401b03811115620001c657620001c662000105565b620001de81620001d784546200011b565b8462000157565b602080601f831160018114620002165760008415620001fd5750858301515b600019600386901b1c1916600185901b178555620001a1565b600085815260208120601f198616915b82811015620002475788860151825594840194600190910190840162000226565b5085821015620002665787850151600019600388901b60f8161c191681555b5050505050600190811b01905550565b61286180620002866000396000f3fe60806040526004361061018b5760003560e01c806389166271116100e0578063c87b56dd11610084578063d74ee02811610061578063d74ee028146104d8578063d8b6c57d146104f8578063e985e9c514610525578063ffc9896b1461054557005b8063c87b56dd14610483578063cb29b4b2146104a3578063d380f690146104b857005b80639d76ea58116100bd5780639d76ea58146103e8578063a22cb46514610408578063b88d4fde14610428578063c7e153381461044857005b806389166271146103915780638da5cb5b146103b357806395d89b41146103d357005b806323b872dd1161014757806342d4d42d1161012457806342d4d42d146102f65780636352211e1461031657806370a0823114610336578063811dd0e21461036457005b806323b872dd146102965780633d97bf0d146102b657806342842e0e146102d657005b806301ffc9a71461019457806306fdde03146101c9578063081812fc146101eb578063095ea7b314610223578063147baaed146102435780631b73ab521461027657005b3661019257005b005b3480156101a057600080fd5b506101b46101af366004611f84565b610572565b60405190151581526020015b60405180910390f35b3480156101d557600080fd5b506101de6105c4565b6040516101c09190611ff1565b3480156101f757600080fd5b5061020b610206366004612004565b610656565b6040516001600160a01b0390911681526020016101c0565b34801561022f57600080fd5b5061019261023e366004612032565b61067d565b34801561024f57600080fd5b5061026361025e366004612004565b610797565b6040516101c0979695949392919061205e565b34801561028257600080fd5b50610192610291366004612004565b610870565b3480156102a257600080fd5b506101926102b13660046120b4565b61098f565b3480156102c257600080fd5b506101926102d1366004612004565b6109c0565b3480156102e257600080fd5b506101926102f13660046120b4565b610c42565b34801561030257600080fd5b506101926103113660046120f5565b610c5d565b34801561032257600080fd5b5061020b610331366004612004565b610dd2565b34801561034257600080fd5b506103566103513660046120f5565b610e32565b6040519081526020016101c0565b34801561037057600080fd5b5061038461037f366004612004565b610eb8565b6040516101c09190612180565b34801561039d57600080fd5b506103a6610fbf565b6040516101c09190612193565b3480156103bf57600080fd5b5060085461020b906001600160a01b031681565b3480156103df57600080fd5b506101de611169565b3480156103f457600080fd5b5060075461020b906001600160a01b031681565b34801561041457600080fd5b50610192610423366004612203565b611178565b34801561043457600080fd5b506101926104433660046122c8565b611183565b34801561045457600080fd5b506101b4610463366004612348565b600a60209081526000928352604080842090915290825290205460ff1681565b34801561048f57600080fd5b506101de61049e366004612004565b6111bb565b3480156104af57600080fd5b506101926112cb565b3480156104c457600080fd5b506103566104d3366004612032565b6113b1565b3480156104e457600080fd5b506101926104f336600461236d565b6113e2565b34801561050457600080fd5b506105186105133660046120f5565b6114a4565b6040516101c091906123d6565b34801561053157600080fd5b506101b461054036600461242b565b611590565b34801561055157600080fd5b506105656105603660046120f5565b6115be565b6040516101c09190612459565b60006001600160e01b031982166380ac58cd60e01b14806105a357506001600160e01b03198216635b5e139f60e01b145b806105be57506301ffc9a760e01b6001600160e01b03198316145b92915050565b6060600080546105d39061249d565b80601f01602080910402602001604051908101604052809291908181526020018280546105ff9061249d565b801561064c5780601f106106215761010080835404028352916020019161064c565b820191906000526020600020905b81548152906001019060200180831161062f57829003601f168201915b5050505050905090565b60006106618261168e565b506000908152600460205260409020546001600160a01b031690565b600061068882610dd2565b9050806001600160a01b0316836001600160a01b0316036106fa5760405162461bcd60e51b815260206004820152602160248201527f4552433732313a20617070726f76616c20746f2063757272656e74206f776e656044820152603960f91b60648201526084015b60405180910390fd5b336001600160a01b038216148061071657506107168133611590565b6107885760405162461bcd60e51b815260206004820152603d60248201527f4552433732313a20617070726f76652063616c6c6572206973206e6f7420746f60448201527f6b656e206f776e6572206f7220617070726f76656420666f7220616c6c00000060648201526084016106f1565b61079283836116f0565b505050565b600d602052600090815260409020805481906107b29061249d565b80601f01602080910402602001604051908101604052809291908181526020018280546107de9061249d565b801561082b5780601f106108005761010080835404028352916020019161082b565b820191906000526020600020905b81548152906001019060200180831161080e57829003601f168201915b5050506001840154600285015460038601546004870154600588015460069098015496976001600160801b03909416966001600160a01b039093169550909350919087565b6000818152600d6020526040902060028101546001600160a01b031633146108d25760405162461bcd60e51b81526020600482015260156024820152742cb7ba9030b932903737ba10309031b932b0ba37b960591b60448201526064016106f1565b600581018054600090915560075460405163a9059cbb60e01b8152336004820152602481018390526001600160a01b039091169063a9059cbb906044016020604051808303816000875af115801561092e573d6000803e3d6000fd5b505050506040513d601f19601f8201168201806040525081019061095291906124d7565b6107925760405162461bcd60e51b815260206004820152600e60248201526d139bdd081cdd58d8d95cdcd99d5b60921b60448201526064016106f1565b610999338261175e565b6109b55760405162461bcd60e51b81526004016106f1906124f4565b6107928383836117bc565b6000818152600a6020908152604080832033845290915290205460ff1615610a2a5760405162461bcd60e51b815260206004820152601860248201527f596f752063616e2774207075726368617365207477696365000000000000000060448201526064016106f1565b6000818152600d602052604090819020600754600182015492516323b872dd60e01b81523360048201523060248201526001600160801b03909316604484015290916001600160a01b03909116906323b872dd906064016020604051808303816000875af1158015610aa0573d6000803e3d6000fd5b505050506040513d601f19601f82011682018060405250810190610ac491906124d7565b610b065760405162461bcd60e51b8152602060048201526013602482015272125b9cdd59999a58da595b9d08105b5bdd5b9d606a1b60448201526064016106f1565b60018101546005820180546001600160801b0390921691600090610b2b908490612557565b9091555050600954336000818152600b6020908152604082208054600181018255908352912001829055610b5f9082611920565b610bf581836000018054610b729061249d565b80601f0160208091040260200160405190810160405280929190818152602001828054610b9e9061249d565b8015610beb5780601f10610bc057610100808354040283529160200191610beb565b820191906000526020600020905b815481529060010190602001808311610bce57829003601f168201915b5050505050611aab565b600382018054906000610c078361256a565b9190505550610c1a600980546001019055565b50506000908152600a602090815260408083203384529091529020805460ff19166001179055565b61079283838360405180602001604052806000815250611183565b6008546001600160a01b03163314610cb25760405162461bcd60e51b81526020600482015260186024820152774f6e6c79206f776e65722063616e2063616c6c207468697360401b60448201526064016106f1565b6040516370a0823160e01b81523060048201526000906001600160a01b038316906370a0823190602401602060405180830381865afa158015610cf9573d6000803e3d6000fd5b505050506040513d601f19601f82011682018060405250810190610d1d9190612583565b60405163a9059cbb60e01b8152336004820152602481018290529091506001600160a01b0383169063a9059cbb906044016020604051808303816000875af1158015610d6d573d6000803e3d6000fd5b505050506040513d601f19601f82011682018060405250810190610d9191906124d7565b610dce5760405162461bcd60e51b815260206004820152600e60248201526d139bdd081cdd58d8d95cdcd99d5b60921b60448201526064016106f1565b5050565b6000818152600260205260408120546001600160a01b0316806105be5760405162461bcd60e51b8152602060048201526018602482015277115490cdcc8c4e881a5b9d985b1a59081d1bdad95b88125160421b60448201526064016106f1565b60006001600160a01b038216610e9c5760405162461bcd60e51b815260206004820152602960248201527f4552433732313a2061646472657373207a65726f206973206e6f7420612076616044820152683634b21037bbb732b960b91b60648201526084016106f1565b506001600160a01b031660009081526003602052604090205490565b610ec0611f1f565b6000828152600d602052604090819020815160e08101909252805482908290610ee89061249d565b80601f0160208091040260200160405190810160405280929190818152602001828054610f149061249d565b8015610f615780601f10610f3657610100808354040283529160200191610f61565b820191906000526020600020905b815481529060010190602001808311610f4457829003601f168201915b505050918352505060018201546001600160801b0316602082015260028201546001600160a01b031660408201526003820154606082015260048201546080820152600582015460a082015260069091015460c09091015292915050565b60606001600c54610fd0919061259c565b67ffffffffffffffff811115610fe857610fe861223c565b60405190808252806020026020018201604052801561102157816020015b61100e611f1f565b8152602001906001900390816110065790505b50905060015b600c54811015611165576000818152600d602052604090819020815160e081019092528054829082906110599061249d565b80601f01602080910402602001604051908101604052809291908181526020018280546110859061249d565b80156110d25780601f106110a7576101008083540402835291602001916110d2565b820191906000526020600020905b8154815290600101906020018083116110b557829003601f168201915b50505091835250506001828101546001600160801b0316602083015260028301546001600160a01b031660408301526003830154606083015260048301546080830152600583015460a083015260069092015460c0909101528390611137908461259c565b81518110611147576111476125af565b6020026020010181905250808061115d9061256a565b915050611027565b5090565b6060600180546105d39061249d565b610dce338383611b3e565b61118d338361175e565b6111a95760405162461bcd60e51b81526004016106f1906124f4565b6111b584848484611c0c565b50505050565b60606111c68261168e565b600082815260066020526040812080546111df9061249d565b80601f016020809104026020016040519081016040528092919081815260200182805461120b9061249d565b80156112585780601f1061122d57610100808354040283529160200191611258565b820191906000526020600020905b81548152906001019060200180831161123b57829003601f168201915b50505050509050600061127660408051602081019091526000815290565b90508051600003611288575092915050565b8151156112ba5780826040516020016112a29291906125c5565b60405160208183030381529060405292505050919050565b6112c384611c3f565b949350505050565b6008546001600160a01b031633146113205760405162461bcd60e51b81526020600482015260186024820152774f6e6c79206f776e65722063616e2063616c6c207468697360401b60448201526064016106f1565b6040514790600090339083908381818185875af1925050503d8060008114611364576040519150601f19603f3d011682016040523d82523d6000602084013e611369565b606091505b5050905080610dce5760405162461bcd60e51b81526020600482015260146024820152732330b4b632b2103a379039b2b7321032ba3432b960611b60448201526064016106f1565b600b60205281600052604060002081815481106113cd57600080fd5b90600052602060002001600091509150505481565b600c546000908152600d60205260409020806113fe8582612642565b506001810180546001600160801b0385166fffffffffffffffffffffffffffffffff199091161790556002810180546001600160a01b0319163317905560048101829055600c54600682018190556040517fa89c30c08dd1a31c16bb9c4ea28355cf6c604d84b9e3160329e26965bb8d2de6916114819187918791879190612702565b60405180910390a1600c80549060006114998361256a565b919050555050505050565b6001600160a01b0381166000908152600b60205260409020546060908067ffffffffffffffff8111156114d9576114d961223c565b60405190808252806020026020018201604052801561150c57816020015b60608152602001906001900390816114f75790505b50915060005b81811015611589576001600160a01b0384166000908152600b602052604090208054611559919083908110611549576115496125af565b90600052602060002001546111bb565b83828151811061156b5761156b6125af565b602002602001018190525080806115819061256a565b915050611512565b5050919050565b6001600160a01b03918216600090815260056020908152604080832093909416825291909152205460ff1690565b6001600160a01b0381166000908152600b60205260409020546060908067ffffffffffffffff8111156115f3576115f361223c565b60405190808252806020026020018201604052801561161c578160200160208202803683370190505b50915060005b81811015611589576001600160a01b0384166000908152600b60205260409020805482908110611654576116546125af565b9060005260206000200154838281518110611671576116716125af565b6020908102919091010152806116868161256a565b915050611622565b6000818152600260205260409020546001600160a01b03166116ed5760405162461bcd60e51b8152602060048201526018602482015277115490cdcc8c4e881a5b9d985b1a59081d1bdad95b88125160421b60448201526064016106f1565b50565b600081815260046020526040902080546001600160a01b0319166001600160a01b038416908117909155819061172582610dd2565b6001600160a01b03167f8c5be1e5ebec7d5bd14f71427d1e84f3dd0314c0f7b2291e5b200ac8c7c3b92560405160405180910390a45050565b60008061176a83610dd2565b9050806001600160a01b0316846001600160a01b0316148061179157506117918185611590565b806112c35750836001600160a01b03166117aa84610656565b6001600160a01b031614949350505050565b826001600160a01b03166117cf82610dd2565b6001600160a01b0316146117f55760405162461bcd60e51b81526004016106f19061273a565b6001600160a01b0382166118575760405162461bcd60e51b8152602060048201526024808201527f4552433732313a207472616e7366657220746f20746865207a65726f206164646044820152637265737360e01b60648201526084016106f1565b826001600160a01b031661186a82610dd2565b6001600160a01b0316146118905760405162461bcd60e51b81526004016106f19061273a565b600081815260046020908152604080832080546001600160a01b03199081169091556001600160a01b0387811680865260038552838620805460001901905590871680865283862080546001019055868652600290945282852080549092168417909155905184937fddf252ad1be2c89b69c2b068fc378daa952ba7f163c4a11628f55a4df523b3ef91a4505050565b6001600160a01b0382166119765760405162461bcd60e51b815260206004820181905260248201527f4552433732313a206d696e7420746f20746865207a65726f206164647265737360448201526064016106f1565b6000818152600260205260409020546001600160a01b0316156119db5760405162461bcd60e51b815260206004820152601c60248201527f4552433732313a20746f6b656e20616c7265616479206d696e7465640000000060448201526064016106f1565b6000818152600260205260409020546001600160a01b031615611a405760405162461bcd60e51b815260206004820152601c60248201527f4552433732313a20746f6b656e20616c7265616479206d696e7465640000000060448201526064016106f1565b6001600160a01b038216600081815260036020908152604080832080546001019055848352600290915280822080546001600160a01b0319168417905551839291907fddf252ad1be2c89b69c2b068fc378daa952ba7f163c4a11628f55a4df523b3ef908290a45050565b6000828152600260205260409020546001600160a01b0316611b265760405162461bcd60e51b815260206004820152602e60248201527f45524337323155524953746f726167653a2055524920736574206f66206e6f6e60448201526d32bc34b9ba32b73a103a37b5b2b760911b60648201526084016106f1565b60008281526006602052604090206107928282612642565b816001600160a01b0316836001600160a01b031603611b9f5760405162461bcd60e51b815260206004820152601960248201527f4552433732313a20617070726f766520746f2063616c6c65720000000000000060448201526064016106f1565b6001600160a01b03838116600081815260056020908152604080832094871680845294825291829020805460ff191686151590811790915591519182527f17307eab39ab6107e8899845ad3d59bd9653f200f220920489ca2b5937696c31910160405180910390a3505050565b611c178484846117bc565b611c2384848484611cb3565b6111b55760405162461bcd60e51b81526004016106f19061277f565b6060611c4a8261168e565b6000611c6160408051602081019091526000815290565b90506000815111611c815760405180602001604052806000815250611cac565b80611c8b84611db4565b604051602001611c9c9291906125c5565b6040516020818303038152906040525b9392505050565b60006001600160a01b0384163b15611da957604051630a85bd0160e11b81526001600160a01b0385169063150b7a0290611cf79033908990889088906004016127d1565b6020604051808303816000875af1925050508015611d32575060408051601f3d908101601f19168201909252611d2f9181019061280e565b60015b611d8f573d808015611d60576040519150601f19603f3d011682016040523d82523d6000602084013e611d65565b606091505b508051600003611d875760405162461bcd60e51b81526004016106f19061277f565b805181602001fd5b6001600160e01b031916630a85bd0160e11b1490506112c3565b506001949350505050565b60606000611dc183611e47565b600101905060008167ffffffffffffffff811115611de157611de161223c565b6040519080825280601f01601f191660200182016040528015611e0b576020820181803683370190505b5090508181016020015b600019016f181899199a1a9b1b9c1cb0b131b232b360811b600a86061a8153600a8504945084611e1557509392505050565b60008072184f03e93ff9f4daa797ed6e38ed64bf6a1f0160401b8310611e865772184f03e93ff9f4daa797ed6e38ed64bf6a1f0160401b830492506040015b6d04ee2d6d415b85acef81000000008310611eb2576d04ee2d6d415b85acef8100000000830492506020015b662386f26fc100008310611ed057662386f26fc10000830492506010015b6305f5e1008310611ee8576305f5e100830492506008015b6127108310611efc57612710830492506004015b60648310611f0e576064830492506002015b600a83106105be5760010192915050565b6040518060e001604052806060815260200160006001600160801b0316815260200160006001600160a01b03168152602001600081526020016000815260200160008152602001600081525090565b6001600160e01b0319811681146116ed57600080fd5b600060208284031215611f9657600080fd5b8135611cac81611f6e565b60005b83811015611fbc578181015183820152602001611fa4565b50506000910152565b60008151808452611fdd816020860160208601611fa1565b601f01601f19169290920160200192915050565b602081526000611cac6020830184611fc5565b60006020828403121561201657600080fd5b5035919050565b6001600160a01b03811681146116ed57600080fd5b6000806040838503121561204557600080fd5b82356120508161201d565b946020939093013593505050565b60e08152600061207160e083018a611fc5565b6001600160801b03989098166020830152506001600160a01b039590951660408601526060850193909352608084019190915260a083015260c090910152919050565b6000806000606084860312156120c957600080fd5b83356120d48161201d565b925060208401356120e48161201d565b929592945050506040919091013590565b60006020828403121561210757600080fd5b8135611cac8161201d565b6000815160e0845261212760e0850182611fc5565b90506001600160801b03602084015116602085015260018060a01b036040840151166040850152606083015160608501526080830151608085015260a083015160a085015260c083015160c08501528091505092915050565b602081526000611cac6020830184612112565b6000602080830181845280855180835260408601915060408160051b870101925083870160005b828110156121e857603f198886030184526121d6858351612112565b945092850192908501906001016121ba565b5092979650505050505050565b80151581146116ed57600080fd5b6000806040838503121561221657600080fd5b82356122218161201d565b91506020830135612231816121f5565b809150509250929050565b634e487b7160e01b600052604160045260246000fd5b600067ffffffffffffffff8084111561226d5761226d61223c565b604051601f8501601f19908116603f011681019082821181831017156122955761229561223c565b816040528093508581528686860111156122ae57600080fd5b858560208301376000602087830101525050509392505050565b600080600080608085870312156122de57600080fd5b84356122e98161201d565b935060208501356122f98161201d565b925060408501359150606085013567ffffffffffffffff81111561231c57600080fd5b8501601f8101871361232d57600080fd5b61233c87823560208401612252565b91505092959194509250565b6000806040838503121561235b57600080fd5b8235915060208301356122318161201d565b60008060006060848603121561238257600080fd5b833567ffffffffffffffff81111561239957600080fd5b8401601f810186136123aa57600080fd5b6123b986823560208401612252565b93505060208401356001600160801b03811681146120e457600080fd5b6000602080830181845280855180835260408601915060408160051b870101925083870160005b828110156121e857603f19888603018452612419858351611fc5565b945092850192908501906001016123fd565b6000806040838503121561243e57600080fd5b82356124498161201d565b915060208301356122318161201d565b6020808252825182820181905260009190848201906040850190845b8181101561249157835183529284019291840191600101612475565b50909695505050505050565b600181811c908216806124b157607f821691505b6020821081036124d157634e487b7160e01b600052602260045260246000fd5b50919050565b6000602082840312156124e957600080fd5b8151611cac816121f5565b6020808252602d908201527f4552433732313a2063616c6c6572206973206e6f7420746f6b656e206f776e6560408201526c1c881bdc88185c1c1c9bdd9959609a1b606082015260800190565b634e487b7160e01b600052601160045260246000fd5b808201808211156105be576105be612541565b60006001820161257c5761257c612541565b5060010190565b60006020828403121561259557600080fd5b5051919050565b818103818111156105be576105be612541565b634e487b7160e01b600052603260045260246000fd5b600083516125d7818460208801611fa1565b8351908301906125eb818360208801611fa1565b01949350505050565b601f82111561079257600081815260208120601f850160051c8101602086101561261b5750805b601f850160051c820191505b8181101561263a57828155600101612627565b505050505050565b815167ffffffffffffffff81111561265c5761265c61223c565b6126708161266a845461249d565b846125f4565b602080601f8311600181146126a5576000841561268d5750858301515b600019600386901b1c1916600185901b17855561263a565b600085815260208120601f198616915b828110156126d4578886015182559484019460019091019084016126b5565b50858210156126f25787850151600019600388901b60f8161c191681555b5050505050600190811b01905550565b6080815260006127156080830187611fc5565b6001600160801b03959095166020830152506040810192909252606090910152919050565b60208082526025908201527f4552433732313a207472616e736665722066726f6d20696e636f72726563742060408201526437bbb732b960d91b606082015260800190565b60208082526032908201527f4552433732313a207472616e7366657220746f206e6f6e20455243373231526560408201527131b2b4bb32b91034b6b83632b6b2b73a32b960711b606082015260800190565b6001600160a01b038581168252841660208201526040810183905260806060820181905260009061280490830184611fc5565b9695505050505050565b60006020828403121561282057600080fd5b8151611cac81611f6e56fea264697066735822122099a63d4d3c26772d42b702c0ce3e8c619094a6d181edded84efe3e81f8d87a0164736f6c63430008100033",
    "linkReferences": {}
  },
  "methodIdentifiers": {
    "OGCount(uint256)": "147baaed",
    "approve(address,uint256)": "095ea7b3",
    "balanceOf(address)": "70a08231",
    "createOG(string,uint128,uint256)": "d74ee028",
    "genericWithdrawETH()": "cb29b4b2",
    "genericWithdrawal(address)": "42d4d42d",
    "getAllOG()": "89166271",
    "getApproved(uint256)": "081812fc",
    "getArtist(uint256)": "811dd0e2",
    "getID(address,uint256)": "d380f690",
    "getTokensURI(address)": "d8b6c57d",
    "getUserData(address)": "ffc9896b",
    "isApprovedForAll(address,address)": "e985e9c5",
    "joinOG(uint256)": "3d97bf0d",
    "name()": "06fdde03",
    "owner()": "8da5cb5b",
    "ownerOf(uint256)": "6352211e",
    "purchased(uint256,address)": "c7e15338",
    "safeTransferFrom(address,address,uint256)": "42842e0e",
    "safeTransferFrom(address,address,uint256,bytes)": "b88d4fde",
    "setApprovalForAll(address,bool)": "a22cb465",
    "supportsInterface(bytes4)": "01ffc9a7",
    "symbol()": "95d89b41",
    "tokenAddress()": "9d76ea58",
    "tokenURI(uint256)": "c87b56dd",
    "transferFrom(address,address,uint256)": "23b872dd",
    "withdrawOGDeposit(uint256)": "1b73ab52"
  },
  "id": 0
}