{
  "abi": [
    {
      "inputs": [
        {
          "internalType": "contract IERC20",
          "name": "_tokenAddress",
          "type": "address"
        }
      ],
      "stateMutability": "nonpayable",
      "type": "constructor"
    },
    {
      "anonymous": false,
      "inputs": [
        {
          "indexed": true,
          "internalType": "address",
          "name": "owner",
          "type": "address"
        },
        {
          "indexed": true,
          "internalType": "address",
          "name": "approved",
          "type": "address"
        },
        {
          "indexed": true,
          "internalType": "uint256",
          "name": "tokenId",
          "type": "uint256"
        }
      ],
      "name": "Approval",
      "type": "event"
    },
    {
      "anonymous": false,
      "inputs": [
        {
          "indexed": true,
          "internalType": "address",
          "name": "owner",
          "type": "address"
        },
        {
          "indexed": true,
          "internalType": "address",
          "name": "operator",
          "type": "address"
        },
        {
          "indexed": false,
          "internalType": "bool",
          "name": "approved",
          "type": "bool"
        }
      ],
      "name": "ApprovalForAll",
      "type": "event"
    },
    {
      "anonymous": false,
      "inputs": [
        {
          "indexed": true,
          "internalType": "address",
          "name": "from",
          "type": "address"
        },
        {
          "indexed": true,
          "internalType": "address",
          "name": "to",
          "type": "address"
        },
        {
          "indexed": true,
          "internalType": "uint256",
          "name": "tokenId",
          "type": "uint256"
        }
      ],
      "name": "Transfer",
      "type": "event"
    },
    {
      "anonymous": false,
      "inputs": [
        {
          "indexed": false,
          "internalType": "string",
          "name": "_nftURI",
          "type": "string"
        },
        {
          "indexed": false,
          "internalType": "uint128",
          "name": "_listedAmount",
          "type": "uint128"
        },
        {
          "indexed": false,
          "internalType": "uint256",
          "name": "_maxSupply",
          "type": "uint256"
        },
        {
          "indexed": false,
          "internalType": "uint256",
          "name": "_number",
          "type": "uint256"
        }
      ],
      "name": "_createOG",
      "type": "event"
    },
    {
      "stateMutability": "payable",
      "type": "fallback"
    },
    {
      "inputs": [
        {
          "internalType": "uint256",
          "name": "",
          "type": "uint256"
        }
      ],
      "name": "OGCount",
      "outputs": [
        {
          "internalType": "string",
          "name": "nftURI",
          "type": "string"
        },
        {
          "internalType": "uint128",
          "name": "listedAmount",
          "type": "uint128"
        },
        {
          "internalType": "address",
          "name": "OGCreator",
          "type": "address"
        },
        {
          "internalType": "uint256",
          "name": "OGCardCount",
          "type": "uint256"
        },
        {
          "internalType": "uint256",
          "name": "maxSupply",
          "type": "uint256"
        },
        {
          "internalType": "uint256",
          "name": "amountEarned",
          "type": "uint256"
        }
      ],
      "stateMutability": "view",
      "type": "function"
    },
    {
      "inputs": [
        {
          "internalType": "address",
          "name": "to",
          "type": "address"
        },
        {
          "internalType": "uint256",
          "name": "tokenId",
          "type": "uint256"
        }
      ],
      "name": "approve",
      "outputs": [],
      "stateMutability": "nonpayable",
      "type": "function"
    },
    {
      "inputs": [
        {
          "internalType": "address",
          "name": "owner",
          "type": "address"
        }
      ],
      "name": "balanceOf",
      "outputs": [
        {
          "internalType": "uint256",
          "name": "",
          "type": "uint256"
        }
      ],
      "stateMutability": "view",
      "type": "function"
    },
    {
      "inputs": [
        {
          "internalType": "string",
          "name": "_nftURI",
          "type": "string"
        },
        {
          "internalType": "uint128",
          "name": "_listedAmount",
          "type": "uint128"
        },
        {
          "internalType": "uint256",
          "name": "_maxSupply",
          "type": "uint256"
        }
      ],
      "name": "createOG",
      "outputs": [],
      "stateMutability": "nonpayable",
      "type": "function"
    },
    {
      "inputs": [],
      "name": "genericWithdrawETH",
      "outputs": [],
      "stateMutability": "nonpayable",
      "type": "function"
    },
    {
      "inputs": [
        {
          "internalType": "contract IERC20",
          "name": "_tokenAddress",
          "type": "address"
        }
      ],
      "name": "genericWithdrawal",
      "outputs": [],
      "stateMutability": "nonpayable",
      "type": "function"
    },
    {
      "inputs": [],
      "name": "getAllOG",
      "outputs": [
        {
          "components": [
            {
              "internalType": "string",
              "name": "nftURI",
              "type": "string"
            },
            {
              "internalType": "uint128",
              "name": "listedAmount",
              "type": "uint128"
            },
            {
              "internalType": "address",
              "name": "OGCreator",
              "type": "address"
            },
            {
              "internalType": "uint256",
              "name": "OGCardCount",
              "type": "uint256"
            },
            {
              "internalType": "uint256",
              "name": "maxSupply",
              "type": "uint256"
            },
            {
              "internalType": "uint256",
              "name": "amountEarned",
              "type": "uint256"
            }
          ],
          "internalType": "struct Decentainment.OGDetails[]",
          "name": "_allOG",
          "type": "tuple[]"
        }
      ],
      "stateMutability": "view",
      "type": "function"
    },
    {
      "inputs": [
        {
          "internalType": "uint256",
          "name": "tokenId",
          "type": "uint256"
        }
      ],
      "name": "getApproved",
      "outputs": [
        {
          "internalType": "address",
          "name": "",
          "type": "address"
        }
      ],
      "stateMutability": "view",
      "type": "function"
    },
    {
      "inputs": [
        {
          "internalType": "uint256",
          "name": "_OGNumber",
          "type": "uint256"
        }
      ],
      "name": "getArtist",
      "outputs": [
        {
          "components": [
            {
              "internalType": "string",
              "name": "nftURI",
              "type": "string"
            },
            {
              "internalType": "uint128",
              "name": "listedAmount",
              "type": "uint128"
            },
            {
              "internalType": "address",
              "name": "OGCreator",
              "type": "address"
            },
            {
              "internalType": "uint256",
              "name": "OGCardCount",
              "type": "uint256"
            },
            {
              "internalType": "uint256",
              "name": "maxSupply",
              "type": "uint256"
            },
            {
              "internalType": "uint256",
              "name": "amountEarned",
              "type": "uint256"
            }
          ],
          "internalType": "struct Decentainment.OGDetails",
          "name": "",
          "type": "tuple"
        }
      ],
      "stateMutability": "view",
      "type": "function"
    },
    {
      "inputs": [
        {
          "internalType": "address",
          "name": "",
          "type": "address"
        },
        {
          "internalType": "uint256",
          "name": "",
          "type": "uint256"
        }
      ],
      "name": "getID",
      "outputs": [
        {
          "internalType": "uint256",
          "name": "",
          "type": "uint256"
        }
      ],
      "stateMutability": "view",
      "type": "function"
    },
    {
      "inputs": [],
      "name": "getTokensURI",
      "outputs": [
        {
          "internalType": "string[]",
          "name": "_tokenURI",
          "type": "string[]"
        }
      ],
      "stateMutability": "view",
      "type": "function"
    },
    {
      "inputs": [],
      "name": "getUserData",
      "outputs": [
        {
          "internalType": "uint256[]",
          "name": "_userData",
          "type": "uint256[]"
        }
      ],
      "stateMutability": "view",
      "type": "function"
    },
    {
      "inputs": [
        {
          "internalType": "address",
          "name": "owner",
          "type": "address"
        },
        {
          "internalType": "address",
          "name": "operator",
          "type": "address"
        }
      ],
      "name": "isApprovedForAll",
      "outputs": [
        {
          "internalType": "bool",
          "name": "",
          "type": "bool"
        }
      ],
      "stateMutability": "view",
      "type": "function"
    },
    {
      "inputs": [
        {
          "internalType": "uint256",
          "name": "_OGNumber",
          "type": "uint256"
        }
      ],
      "name": "joinOG",
      "outputs": [],
      "stateMutability": "nonpayable",
      "type": "function"
    },
    {
      "inputs": [],
      "name": "name",
      "outputs": [
        {
          "internalType": "string",
          "name": "",
          "type": "string"
        }
      ],
      "stateMutability": "view",
      "type": "function"
    },
    {
      "inputs": [],
      "name": "owner",
      "outputs": [
        {
          "internalType": "address",
          "name": "",
          "type": "address"
        }
      ],
      "stateMutability": "view",
      "type": "function"
    },
    {
      "inputs": [
        {
          "internalType": "uint256",
          "name": "tokenId",
          "type": "uint256"
        }
      ],
      "name": "ownerOf",
      "outputs": [
        {
          "internalType": "address",
          "name": "",
          "type": "address"
        }
      ],
      "stateMutability": "view",
      "type": "function"
    },
    {
      "inputs": [
        {
          "internalType": "uint256",
          "name": "",
          "type": "uint256"
        },
        {
          "internalType": "address",
          "name": "",
          "type": "address"
        }
      ],
      "name": "purchased",
      "outputs": [
        {
          "internalType": "bool",
          "name": "",
          "type": "bool"
        }
      ],
      "stateMutability": "view",
      "type": "function"
    },
    {
      "inputs": [
        {
          "internalType": "address",
          "name": "from",
          "type": "address"
        },
        {
          "internalType": "address",
          "name": "to",
          "type": "address"
        },
        {
          "internalType": "uint256",
          "name": "tokenId",
          "type": "uint256"
        }
      ],
      "name": "safeTransferFrom",
      "outputs": [],
      "stateMutability": "nonpayable",
      "type": "function"
    },
    {
      "inputs": [
        {
          "internalType": "address",
          "name": "from",
          "type": "address"
        },
        {
          "internalType": "address",
          "name": "to",
          "type": "address"
        },
        {
          "internalType": "uint256",
          "name": "tokenId",
          "type": "uint256"
        },
        {
          "internalType": "bytes",
          "name": "data",
          "type": "bytes"
        }
      ],
      "name": "safeTransferFrom",
      "outputs": [],
      "stateMutability": "nonpayable",
      "type": "function"
    },
    {
      "inputs": [
        {
          "internalType": "address",
          "name": "operator",
          "type": "address"
        },
        {
          "internalType": "bool",
          "name": "approved",
          "type": "bool"
        }
      ],
      "name": "setApprovalForAll",
      "outputs": [],
      "stateMutability": "nonpayable",
      "type": "function"
    },
    {
      "inputs": [
        {
          "internalType": "bytes4",
          "name": "interfaceId",
          "type": "bytes4"
        }
      ],
      "name": "supportsInterface",
      "outputs": [
        {
          "internalType": "bool",
          "name": "",
          "type": "bool"
        }
      ],
      "stateMutability": "view",
      "type": "function"
    },
    {
      "inputs": [],
      "name": "symbol",
      "outputs": [
        {
          "internalType": "string",
          "name": "",
          "type": "string"
        }
      ],
      "stateMutability": "view",
      "type": "function"
    },
    {
      "inputs": [],
      "name": "tokenAddress",
      "outputs": [
        {
          "internalType": "contract IERC20",
          "name": "",
          "type": "address"
        }
      ],
      "stateMutability": "view",
      "type": "function"
    },
    {
      "inputs": [
        {
          "internalType": "uint256",
          "name": "tokenId",
          "type": "uint256"
        }
      ],
      "name": "tokenURI",
      "outputs": [
        {
          "internalType": "string",
          "name": "",
          "type": "string"
        }
      ],
      "stateMutability": "view",
      "type": "function"
    },
    {
      "inputs": [
        {
          "internalType": "address",
          "name": "from",
          "type": "address"
        },
        {
          "internalType": "address",
          "name": "to",
          "type": "address"
        },
        {
          "internalType": "uint256",
          "name": "tokenId",
          "type": "uint256"
        }
      ],
      "name": "transferFrom",
      "outputs": [],
      "stateMutability": "nonpayable",
      "type": "function"
    },
    {
      "inputs": [
        {
          "internalType": "uint256",
          "name": "_OGNumber",
          "type": "uint256"
        }
      ],
      "name": "withdrawOGDeposit",
      "outputs": [],
      "stateMutability": "nonpayable",
      "type": "function"
    },
    {
      "stateMutability": "payable",
      "type": "receive"
    }
  ],
  "bytecode": {
    "object": "0x60806040526001600c553480156200001657600080fd5b5060405162002baa38038062002baa8339810160408190526200003991620000d3565b6040518060400160405280600d81526020016c111958d95b9d185a5b9b595b9d609a1b815250604051806040016040528060038152602001621110d560ea1b81525081600090816200008c9190620001aa565b5060016200009b8282620001aa565b505060088054336001600160a01b031991821617909155600780549091166001600160a01b0393909316929092179091555062000276565b600060208284031215620000e657600080fd5b81516001600160a01b0381168114620000fe57600080fd5b9392505050565b634e487b7160e01b600052604160045260246000fd5b600181811c908216806200013057607f821691505b6020821081036200015157634e487b7160e01b600052602260045260246000fd5b50919050565b601f821115620001a557600081815260208120601f850160051c81016020861015620001805750805b601f850160051c820191505b81811015620001a1578281556001016200018c565b5050505b505050565b81516001600160401b03811115620001c657620001c662000105565b620001de81620001d784546200011b565b8462000157565b602080601f831160018114620002165760008415620001fd5750858301515b600019600386901b1c1916600185901b178555620001a1565b600085815260208120601f198616915b82811015620002475788860151825594840194600190910190840162000226565b5085821015620002665787850151600019600388901b60f8161c191681555b5050505050600190811b01905550565b61292480620002866000396000f3fe60806040526004361061018b5760003560e01c8063811dd0e2116100e0578063b88d4fde11610084578063cb29b4b211610061578063cb29b4b2146104e6578063d380f690146104fb578063d74ee0281461051b578063e985e9c51461053b57005b8063b88d4fde1461046b578063c7e153381461048b578063c87b56dd146104c657005b806395d89b41116100bd57806395d89b41146103f45780639d76ea5814610409578063a22cb46514610429578063b5e76c7c1461044957005b8063811dd0e21461038557806389166271146103b25780638da5cb5b146103d457005b806322e8c87d1161014757806342842e0e1161012457806342842e0e146102f757806342d4d42d146103175780636352211e1461033757806370a082311461035757005b806322e8c87d1461029557806323b872dd146102b75780633d97bf0d146102d757005b806301ffc9a71461019457806306fdde03146101c9578063081812fc146101eb578063095ea7b314610223578063147baaed146102435780631b73ab521461027557005b3661019257005b005b3480156101a057600080fd5b506101b46101af366004612059565b61055b565b60405190151581526020015b60405180910390f35b3480156101d557600080fd5b506101de6105ad565b6040516101c091906120c6565b3480156101f757600080fd5b5061020b6102063660046120d9565b61063f565b6040516001600160a01b0390911681526020016101c0565b34801561022f57600080fd5b5061019261023e366004612107565b610666565b34801561024f57600080fd5b5061026361025e3660046120d9565b610780565b6040516101c096959493929190612133565b34801561028157600080fd5b506101926102903660046120d9565b610851565b3480156102a157600080fd5b506102aa610a53565b6040516101c09190612181565b3480156102c357600080fd5b506101926102d23660046121c5565b610b16565b3480156102e357600080fd5b506101926102f23660046120d9565b610b47565b34801561030357600080fd5b506101926103123660046121c5565b610e22565b34801561032357600080fd5b50610192610332366004612206565b610e3d565b34801561034357600080fd5b5061020b6103523660046120d9565b610fb2565b34801561036357600080fd5b50610377610372366004612206565b611012565b6040519081526020016101c0565b34801561039157600080fd5b506103a56103a03660046120d9565b611098565b6040516101c09190612287565b3480156103be57600080fd5b506103c7611195565b6040516101c0919061229a565b3480156103e057600080fd5b5060085461020b906001600160a01b031681565b34801561040057600080fd5b506101de611335565b34801561041557600080fd5b5060075461020b906001600160a01b031681565b34801561043557600080fd5b5061019261044436600461230a565b611344565b34801561045557600080fd5b5061045e61134f565b6040516101c09190612343565b34801561047757600080fd5b50610192610486366004612424565b611422565b34801561049757600080fd5b506101b46104a63660046124a4565b600a60209081526000928352604080842090915290825290205460ff1681565b3480156104d257600080fd5b506101de6104e13660046120d9565b61145a565b3480156104f257600080fd5b5061019261156a565b34801561050757600080fd5b50610377610516366004612107565b611650565b34801561052757600080fd5b506101926105363660046124c9565b611681565b34801561054757600080fd5b506101b4610556366004612532565b61173c565b60006001600160e01b031982166380ac58cd60e01b148061058c57506001600160e01b03198216635b5e139f60e01b145b806105a757506301ffc9a760e01b6001600160e01b03198316145b92915050565b6060600080546105bc90612560565b80601f01602080910402602001604051908101604052809291908181526020018280546105e890612560565b80156106355780601f1061060a57610100808354040283529160200191610635565b820191906000526020600020905b81548152906001019060200180831161061857829003601f168201915b5050505050905090565b600061064a8261176a565b506000908152600460205260409020546001600160a01b031690565b600061067182610fb2565b9050806001600160a01b0316836001600160a01b0316036106e35760405162461bcd60e51b815260206004820152602160248201527f4552433732313a20617070726f76616c20746f2063757272656e74206f776e656044820152603960f91b60648201526084015b60405180910390fd5b336001600160a01b03821614806106ff57506106ff813361173c565b6107715760405162461bcd60e51b815260206004820152603d60248201527f4552433732313a20617070726f76652063616c6c6572206973206e6f7420746f60448201527f6b656e206f776e6572206f7220617070726f76656420666f7220616c6c00000060648201526084016106da565b61077b83836117cc565b505050565b600d6020526000908152604090208054819061079b90612560565b80601f01602080910402602001604051908101604052809291908181526020018280546107c790612560565b80156108145780601f106107e957610100808354040283529160200191610814565b820191906000526020600020905b8154815290600101906020018083116107f757829003601f168201915b505050600184015460028501546003860154600487015460059097015495966001600160801b03909316956001600160a01b039092169450925086565b6000818152600d6020526040808220815160c0810190925280548290829061087890612560565b80601f01602080910402602001604051908101604052809291908181526020018280546108a490612560565b80156108f15780601f106108c6576101008083540402835291602001916108f1565b820191906000526020600020905b8154815290600101906020018083116108d457829003601f168201915b505050918352505060018201546001600160801b0316602082015260028201546001600160a01b03908116604080840191909152600384015460608401526004840154608084015260059093015460a090920191909152908201519192501633146109965760405162461bcd60e51b81526020600482015260156024820152742cb7ba9030b932903737ba10309031b932b0ba37b960591b60448201526064016106da565b60a081018051600090915260075460405163a9059cbb60e01b8152336004820152602481018390526001600160a01b039091169063a9059cbb906044016020604051808303816000875af11580156109f2573d6000803e3d6000fd5b505050506040513d601f19601f82011682018060405250810190610a16919061259a565b61077b5760405162461bcd60e51b815260206004820152600e60248201526d139bdd081cdd58d8d95cdcd99d5b60921b60448201526064016106da565b336000908152600b60205260409020546060908067ffffffffffffffff811115610a7f57610a7f612398565b604051908082528060200260200182016040528015610aa8578160200160208202803683370190505b50915060005b81811015610b1157336000908152600b60205260409020805482908110610ad757610ad76125b7565b9060005260206000200154838281518110610af457610af46125b7565b602090810291909101015280610b09816125e3565b915050610aae565b505090565b610b20338261183a565b610b3c5760405162461bcd60e51b81526004016106da906125fc565b61077b838383611898565b6000818152600a6020908152604080832033845290915290205460ff1615610bb15760405162461bcd60e51b815260206004820152601860248201527f596f752063616e2774207075726368617365207477696365000000000000000060448201526064016106da565b6000818152600d6020526040808220815160c08101909252805482908290610bd890612560565b80601f0160208091040260200160405190810160405280929190818152602001828054610c0490612560565b8015610c515780601f10610c2657610100808354040283529160200191610c51565b820191906000526020600020905b815481529060010190602001808311610c3457829003601f168201915b505050918352505060018201546001600160801b0390811660208084019190915260028401546001600160a01b0390811660408086019190915260038601546060860152600480870154608087015260059096015460a0909501949094526007549186015193516323b872dd60e01b8152339581019590955230602486015292909116604484015292935091909116906323b872dd906064016020604051808303816000875af1158015610d09573d6000803e3d6000fd5b505050506040513d601f19601f82011682018060405250810190610d2d919061259a565b610d6f5760405162461bcd60e51b8152602060048201526013602482015272125b9cdd59999a58da595b9d08105b5bdd5b9d606a1b60448201526064016106da565b80602001516001600160801b03168160a001818151610d8e9190612649565b9052506000610d9c60095490565b336000818152600b6020908152604082208054600181018255908352912001829055909150610dcb90826119fc565b610dd9818360000151611b87565b60608201805190610de9826125e3565b905250610dfa600980546001019055565b50506000908152600a602090815260408083203384529091529020805460ff19166001179055565b61077b83838360405180602001604052806000815250611422565b6008546001600160a01b03163314610e925760405162461bcd60e51b81526020600482015260186024820152774f6e6c79206f776e65722063616e2063616c6c207468697360401b60448201526064016106da565b6040516370a0823160e01b81523060048201526000906001600160a01b038316906370a0823190602401602060405180830381865afa158015610ed9573d6000803e3d6000fd5b505050506040513d601f19601f82011682018060405250810190610efd919061265c565b60405163a9059cbb60e01b8152336004820152602481018290529091506001600160a01b0383169063a9059cbb906044016020604051808303816000875af1158015610f4d573d6000803e3d6000fd5b505050506040513d601f19601f82011682018060405250810190610f71919061259a565b610fae5760405162461bcd60e51b815260206004820152600e60248201526d139bdd081cdd58d8d95cdcd99d5b60921b60448201526064016106da565b5050565b6000818152600260205260408120546001600160a01b0316806105a75760405162461bcd60e51b8152602060048201526018602482015277115490cdcc8c4e881a5b9d985b1a59081d1bdad95b88125160421b60448201526064016106da565b60006001600160a01b03821661107c5760405162461bcd60e51b815260206004820152602960248201527f4552433732313a2061646472657373207a65726f206973206e6f7420612076616044820152683634b21037bbb732b960b91b60648201526084016106da565b506001600160a01b031660009081526003602052604090205490565b6110a0611ffb565b6000828152600d602052604090819020815160c081019092528054829082906110c890612560565b80601f01602080910402602001604051908101604052809291908181526020018280546110f490612560565b80156111415780601f1061111657610100808354040283529160200191611141565b820191906000526020600020905b81548152906001019060200180831161112457829003601f168201915b505050918352505060018201546001600160801b0316602082015260028201546001600160a01b03166040820152600382015460608201526004820154608082015260059091015460a09091015292915050565b60606001600c546111a69190612675565b67ffffffffffffffff8111156111be576111be612398565b6040519080825280602002602001820160405280156111f757816020015b6111e4611ffb565b8152602001906001900390816111dc5790505b50905060015b600c54811015611331576000818152600d602052604090819020815160c0810190925280548290829061122f90612560565b80601f016020809104026020016040519081016040528092919081815260200182805461125b90612560565b80156112a85780601f1061127d576101008083540402835291602001916112a8565b820191906000526020600020905b81548152906001019060200180831161128b57829003601f168201915b50505091835250506001828101546001600160801b0316602083015260028301546001600160a01b03166040830152600383015460608301526004830154608083015260059092015460a09091015283906113039084612675565b81518110611313576113136125b7565b60200260200101819052508080611329906125e3565b9150506111fd565b5090565b6060600180546105bc90612560565b610fae338383611c1a565b336000908152600b60205260409020546060908067ffffffffffffffff81111561137b5761137b612398565b6040519080825280602002602001820160405280156113ae57816020015b60608152602001906001900390816113995790505b50915060005b81811015610b1157336000908152600b6020526040902080546113f29190839081106113e2576113e26125b7565b906000526020600020015461145a565b838281518110611404576114046125b7565b6020026020010181905250808061141a906125e3565b9150506113b4565b61142c338361183a565b6114485760405162461bcd60e51b81526004016106da906125fc565b61145484848484611ce8565b50505050565b60606114658261176a565b6000828152600660205260408120805461147e90612560565b80601f01602080910402602001604051908101604052809291908181526020018280546114aa90612560565b80156114f75780601f106114cc576101008083540402835291602001916114f7565b820191906000526020600020905b8154815290600101906020018083116114da57829003601f168201915b50505050509050600061151560408051602081019091526000815290565b90508051600003611527575092915050565b815115611559578082604051602001611541929190612688565b60405160208183030381529060405292505050919050565b61156284611d1b565b949350505050565b6008546001600160a01b031633146115bf5760405162461bcd60e51b81526020600482015260186024820152774f6e6c79206f776e65722063616e2063616c6c207468697360401b60448201526064016106da565b6040514790600090339083908381818185875af1925050503d8060008114611603576040519150601f19603f3d011682016040523d82523d6000602084013e611608565b606091505b5050905080610fae5760405162461bcd60e51b81526020600482015260146024820152732330b4b632b2103a379039b2b7321032ba3432b960611b60448201526064016106da565b600b602052816000526040600020818154811061166c57600080fd5b90600052602060002001600091509150505481565b600c546000908152600d602052604090208061169d8582612705565b506001810180546001600160801b0385166fffffffffffffffffffffffffffffffff199091161790556002810180546001600160a01b0319163317905560048101829055600c546040517fa89c30c08dd1a31c16bb9c4ea28355cf6c604d84b9e3160329e26965bb8d2de69161171991879187918791906127c5565b60405180910390a1600c8054906000611731836125e3565b919050555050505050565b6001600160a01b03918216600090815260056020908152604080832093909416825291909152205460ff1690565b6000818152600260205260409020546001600160a01b03166117c95760405162461bcd60e51b8152602060048201526018602482015277115490cdcc8c4e881a5b9d985b1a59081d1bdad95b88125160421b60448201526064016106da565b50565b600081815260046020526040902080546001600160a01b0319166001600160a01b038416908117909155819061180182610fb2565b6001600160a01b03167f8c5be1e5ebec7d5bd14f71427d1e84f3dd0314c0f7b2291e5b200ac8c7c3b92560405160405180910390a45050565b60008061184683610fb2565b9050806001600160a01b0316846001600160a01b0316148061186d575061186d818561173c565b806115625750836001600160a01b03166118868461063f565b6001600160a01b031614949350505050565b826001600160a01b03166118ab82610fb2565b6001600160a01b0316146118d15760405162461bcd60e51b81526004016106da906127fd565b6001600160a01b0382166119335760405162461bcd60e51b8152602060048201526024808201527f4552433732313a207472616e7366657220746f20746865207a65726f206164646044820152637265737360e01b60648201526084016106da565b826001600160a01b031661194682610fb2565b6001600160a01b03161461196c5760405162461bcd60e51b81526004016106da906127fd565b600081815260046020908152604080832080546001600160a01b03199081169091556001600160a01b0387811680865260038552838620805460001901905590871680865283862080546001019055868652600290945282852080549092168417909155905184937fddf252ad1be2c89b69c2b068fc378daa952ba7f163c4a11628f55a4df523b3ef91a4505050565b6001600160a01b038216611a525760405162461bcd60e51b815260206004820181905260248201527f4552433732313a206d696e7420746f20746865207a65726f206164647265737360448201526064016106da565b6000818152600260205260409020546001600160a01b031615611ab75760405162461bcd60e51b815260206004820152601c60248201527f4552433732313a20746f6b656e20616c7265616479206d696e7465640000000060448201526064016106da565b6000818152600260205260409020546001600160a01b031615611b1c5760405162461bcd60e51b815260206004820152601c60248201527f4552433732313a20746f6b656e20616c7265616479206d696e7465640000000060448201526064016106da565b6001600160a01b038216600081815260036020908152604080832080546001019055848352600290915280822080546001600160a01b0319168417905551839291907fddf252ad1be2c89b69c2b068fc378daa952ba7f163c4a11628f55a4df523b3ef908290a45050565b6000828152600260205260409020546001600160a01b0316611c025760405162461bcd60e51b815260206004820152602e60248201527f45524337323155524953746f726167653a2055524920736574206f66206e6f6e60448201526d32bc34b9ba32b73a103a37b5b2b760911b60648201526084016106da565b600082815260066020526040902061077b8282612705565b816001600160a01b0316836001600160a01b031603611c7b5760405162461bcd60e51b815260206004820152601960248201527f4552433732313a20617070726f766520746f2063616c6c65720000000000000060448201526064016106da565b6001600160a01b03838116600081815260056020908152604080832094871680845294825291829020805460ff191686151590811790915591519182527f17307eab39ab6107e8899845ad3d59bd9653f200f220920489ca2b5937696c31910160405180910390a3505050565b611cf3848484611898565b611cff84848484611d8f565b6114545760405162461bcd60e51b81526004016106da90612842565b6060611d268261176a565b6000611d3d60408051602081019091526000815290565b90506000815111611d5d5760405180602001604052806000815250611d88565b80611d6784611e90565b604051602001611d78929190612688565b6040516020818303038152906040525b9392505050565b60006001600160a01b0384163b15611e8557604051630a85bd0160e11b81526001600160a01b0385169063150b7a0290611dd3903390899088908890600401612894565b6020604051808303816000875af1925050508015611e0e575060408051601f3d908101601f19168201909252611e0b918101906128d1565b60015b611e6b573d808015611e3c576040519150601f19603f3d011682016040523d82523d6000602084013e611e41565b606091505b508051600003611e635760405162461bcd60e51b81526004016106da90612842565b805181602001fd5b6001600160e01b031916630a85bd0160e11b149050611562565b506001949350505050565b60606000611e9d83611f23565b600101905060008167ffffffffffffffff811115611ebd57611ebd612398565b6040519080825280601f01601f191660200182016040528015611ee7576020820181803683370190505b5090508181016020015b600019016f181899199a1a9b1b9c1cb0b131b232b360811b600a86061a8153600a8504945084611ef157509392505050565b60008072184f03e93ff9f4daa797ed6e38ed64bf6a1f0160401b8310611f625772184f03e93ff9f4daa797ed6e38ed64bf6a1f0160401b830492506040015b6d04ee2d6d415b85acef81000000008310611f8e576d04ee2d6d415b85acef8100000000830492506020015b662386f26fc100008310611fac57662386f26fc10000830492506010015b6305f5e1008310611fc4576305f5e100830492506008015b6127108310611fd857612710830492506004015b60648310611fea576064830492506002015b600a83106105a75760010192915050565b6040518060c001604052806060815260200160006001600160801b0316815260200160006001600160a01b031681526020016000815260200160008152602001600081525090565b6001600160e01b0319811681146117c957600080fd5b60006020828403121561206b57600080fd5b8135611d8881612043565b60005b83811015612091578181015183820152602001612079565b50506000910152565b600081518084526120b2816020860160208601612076565b601f01601f19169290920160200192915050565b602081526000611d88602083018461209a565b6000602082840312156120eb57600080fd5b5035919050565b6001600160a01b03811681146117c957600080fd5b6000806040838503121561211a57600080fd5b8235612125816120f2565b946020939093013593505050565b60c08152600061214660c083018961209a565b6001600160801b03979097166020830152506001600160a01b039490941660408501526060840192909252608083015260a090910152919050565b6020808252825182820181905260009190848201906040850190845b818110156121b95783518352928401929184019160010161219d565b50909695505050505050565b6000806000606084860312156121da57600080fd5b83356121e5816120f2565b925060208401356121f5816120f2565b929592945050506040919091013590565b60006020828403121561221857600080fd5b8135611d88816120f2565b6000815160c0845261223860c085018261209a565b90506001600160801b03602084015116602085015260018060a01b036040840151166040850152606083015160608501526080830151608085015260a083015160a08501528091505092915050565b602081526000611d886020830184612223565b6000602080830181845280855180835260408601915060408160051b870101925083870160005b828110156122ef57603f198886030184526122dd858351612223565b945092850192908501906001016122c1565b5092979650505050505050565b80151581146117c957600080fd5b6000806040838503121561231d57600080fd5b8235612328816120f2565b91506020830135612338816122fc565b809150509250929050565b6000602080830181845280855180835260408601915060408160051b870101925083870160005b828110156122ef57603f1988860301845261238685835161209a565b9450928501929085019060010161236a565b634e487b7160e01b600052604160045260246000fd5b600067ffffffffffffffff808411156123c9576123c9612398565b604051601f8501601f19908116603f011681019082821181831017156123f1576123f1612398565b8160405280935085815286868601111561240a57600080fd5b858560208301376000602087830101525050509392505050565b6000806000806080858703121561243a57600080fd5b8435612445816120f2565b93506020850135612455816120f2565b925060408501359150606085013567ffffffffffffffff81111561247857600080fd5b8501601f8101871361248957600080fd5b612498878235602084016123ae565b91505092959194509250565b600080604083850312156124b757600080fd5b823591506020830135612338816120f2565b6000806000606084860312156124de57600080fd5b833567ffffffffffffffff8111156124f557600080fd5b8401601f8101861361250657600080fd5b612515868235602084016123ae565b93505060208401356001600160801b03811681146121f557600080fd5b6000806040838503121561254557600080fd5b8235612550816120f2565b91506020830135612338816120f2565b600181811c9082168061257457607f821691505b60208210810361259457634e487b7160e01b600052602260045260246000fd5b50919050565b6000602082840312156125ac57600080fd5b8151611d88816122fc565b634e487b7160e01b600052603260045260246000fd5b634e487b7160e01b600052601160045260246000fd5b6000600182016125f5576125f56125cd565b5060010190565b6020808252602d908201527f4552433732313a2063616c6c6572206973206e6f7420746f6b656e206f776e6560408201526c1c881bdc88185c1c1c9bdd9959609a1b606082015260800190565b808201808211156105a7576105a76125cd565b60006020828403121561266e57600080fd5b5051919050565b818103818111156105a7576105a76125cd565b6000835161269a818460208801612076565b8351908301906126ae818360208801612076565b01949350505050565b601f82111561077b57600081815260208120601f850160051c810160208610156126de5750805b601f850160051c820191505b818110156126fd578281556001016126ea565b505050505050565b815167ffffffffffffffff81111561271f5761271f612398565b6127338161272d8454612560565b846126b7565b602080601f83116001811461276857600084156127505750858301515b600019600386901b1c1916600185901b1785556126fd565b600085815260208120601f198616915b8281101561279757888601518255948401946001909101908401612778565b50858210156127b55787850151600019600388901b60f8161c191681555b5050505050600190811b01905550565b6080815260006127d8608083018761209a565b6001600160801b03959095166020830152506040810192909252606090910152919050565b60208082526025908201527f4552433732313a207472616e736665722066726f6d20696e636f72726563742060408201526437bbb732b960d91b606082015260800190565b60208082526032908201527f4552433732313a207472616e7366657220746f206e6f6e20455243373231526560408201527131b2b4bb32b91034b6b83632b6b2b73a32b960711b606082015260800190565b6001600160a01b03858116825284166020820152604081018390526080606082018190526000906128c79083018461209a565b9695505050505050565b6000602082840312156128e357600080fd5b8151611d888161204356fea2646970667358221220f5a7aa24d00c7cb18170fc6ae22a097605024951644be2a5224e78fcd954d3c864736f6c63430008100033",
    "linkReferences": {}
  },
  "methodIdentifiers": {
    "OGCount(uint256)": "147baaed",
    "approve(address,uint256)": "095ea7b3",
    "balanceOf(address)": "70a08231",
    "createOG(string,uint128,uint256)": "d74ee028",
    "genericWithdrawETH()": "cb29b4b2",
    "genericWithdrawal(address)": "42d4d42d",
    "getAllOG()": "89166271",
    "getApproved(uint256)": "081812fc",
    "getArtist(uint256)": "811dd0e2",
    "getID(address,uint256)": "d380f690",
    "getTokensURI()": "b5e76c7c",
    "getUserData()": "22e8c87d",
    "isApprovedForAll(address,address)": "e985e9c5",
    "joinOG(uint256)": "3d97bf0d",
    "name()": "06fdde03",
    "owner()": "8da5cb5b",
    "ownerOf(uint256)": "6352211e",
    "purchased(uint256,address)": "c7e15338",
    "safeTransferFrom(address,address,uint256)": "42842e0e",
    "safeTransferFrom(address,address,uint256,bytes)": "b88d4fde",
    "setApprovalForAll(address,bool)": "a22cb465",
    "supportsInterface(bytes4)": "01ffc9a7",
    "symbol()": "95d89b41",
    "tokenAddress()": "9d76ea58",
    "tokenURI(uint256)": "c87b56dd",
    "transferFrom(address,address,uint256)": "23b872dd",
    "withdrawOGDeposit(uint256)": "1b73ab52"
  },
  "id": 0
}